{
  "_format": "hh-sol-artifact-1",
  "contractName": "CreateWill",
  "sourceName": "contracts/Will.sol",
  "abi": [
    {
      "inputs": [],
      "stateMutability": "nonpayable",
      "type": "constructor"
    },
    {
      "anonymous": false,
      "inputs": [
        {
          "indexed": true,
          "internalType": "address",
          "name": "testator",
          "type": "address"
        },
        {
          "indexed": true,
          "internalType": "uint256",
          "name": "willId",
          "type": "uint256"
        }
      ],
      "name": "Ping",
      "type": "event"
    },
    {
      "anonymous": false,
      "inputs": [
        {
          "indexed": true,
          "internalType": "address",
          "name": "testator",
          "type": "address"
        },
        {
          "indexed": true,
          "internalType": "uint256",
          "name": "willId",
          "type": "uint256"
        }
      ],
      "name": "WillCancelled",
      "type": "event"
    },
    {
      "anonymous": false,
      "inputs": [
        {
          "indexed": true,
          "internalType": "address",
          "name": "testator",
          "type": "address"
        },
        {
          "indexed": true,
          "internalType": "uint256",
          "name": "willId",
          "type": "uint256"
        },
        {
          "indexed": false,
          "internalType": "address[]",
          "name": "beneficiaries",
          "type": "address[]"
        },
        {
          "indexed": false,
          "internalType": "uint256[]",
          "name": "amounts",
          "type": "uint256[]"
        },
        {
          "indexed": false,
          "internalType": "uint256",
          "name": "balance",
          "type": "uint256"
        },
        {
          "indexed": false,
          "internalType": "uint256",
          "name": "deathTimeout",
          "type": "uint256"
        }
      ],
      "name": "WillCreated",
      "type": "event"
    },
    {
      "anonymous": false,
      "inputs": [
        {
          "indexed": true,
          "internalType": "address",
          "name": "testator",
          "type": "address"
        },
        {
          "indexed": true,
          "internalType": "uint256",
          "name": "willId",
          "type": "uint256"
        }
      ],
      "name": "WillExecuted",
      "type": "event"
    },
    {
      "inputs": [
        {
          "internalType": "address",
          "name": "",
          "type": "address"
        }
      ],
      "name": "activeWillId",
      "outputs": [
        {
          "internalType": "uint256",
          "name": "",
          "type": "uint256"
        }
      ],
      "stateMutability": "view",
      "type": "function"
    },
    {
      "inputs": [],
      "name": "cancelWill",
      "outputs": [],
      "stateMutability": "nonpayable",
      "type": "function"
    },
    {
      "inputs": [
        {
          "internalType": "uint256",
          "name": "willId",
          "type": "uint256"
        }
      ],
      "name": "cancelWillById",
      "outputs": [],
      "stateMutability": "nonpayable",
      "type": "function"
    },
    {
      "inputs": [
        {
          "internalType": "address[]",
          "name": "_beneficiaries",
          "type": "address[]"
        },
        {
          "internalType": "uint256[]",
          "name": "_amounts",
          "type": "uint256[]"
        },
        {
          "internalType": "uint256",
          "name": "_deathTimeout",
          "type": "uint256"
        }
      ],
      "name": "createWill",
      "outputs": [
        {
          "internalType": "uint256",
          "name": "willId",
          "type": "uint256"
        }
      ],
      "stateMutability": "payable",
      "type": "function"
    },
    {
      "inputs": [
        {
          "internalType": "address",
          "name": "_testator",
          "type": "address"
        }
      ],
      "name": "executeWill",
      "outputs": [],
      "stateMutability": "nonpayable",
      "type": "function"
    },
    {
      "inputs": [
        {
          "internalType": "address",
          "name": "_testator",
          "type": "address"
        },
        {
          "internalType": "uint256",
          "name": "willId",
          "type": "uint256"
        }
      ],
      "name": "executeWillById",
      "outputs": [],
      "stateMutability": "nonpayable",
      "type": "function"
    },
    {
      "inputs": [],
      "name": "getAllTestators",
      "outputs": [
        {
          "internalType": "address[]",
          "name": "",
          "type": "address[]"
        }
      ],
      "stateMutability": "view",
      "type": "function"
    },
    {
      "inputs": [],
      "name": "getMyWillIds",
      "outputs": [
        {
          "internalType": "uint256[]",
          "name": "ids",
          "type": "uint256[]"
        }
      ],
      "stateMutability": "view",
      "type": "function"
    },
    {
      "inputs": [
        {
          "internalType": "address",
          "name": "testator",
          "type": "address"
        },
        {
          "internalType": "uint256",
          "name": "willId",
          "type": "uint256"
        }
      ],
      "name": "getWillById",
      "outputs": [
        {
          "components": [
            {
              "internalType": "address[]",
              "name": "beneficiaries",
              "type": "address[]"
            },
            {
              "internalType": "uint256[]",
              "name": "amounts",
              "type": "uint256[]"
            },
            {
              "internalType": "uint256",
              "name": "createdAt",
              "type": "uint256"
            },
            {
              "internalType": "uint256",
              "name": "lastPing",
              "type": "uint256"
            },
            {
              "internalType": "uint256",
              "name": "deathTimeout",
              "type": "uint256"
            },
            {
              "internalType": "uint256",
              "name": "balance",
              "type": "uint256"
            },
            {
              "internalType": "enum CreateWill.Status",
              "name": "status",
              "type": "uint8"
            }
          ],
          "internalType": "struct CreateWill.Will",
          "name": "",
          "type": "tuple"
        }
      ],
      "stateMutability": "view",
      "type": "function"
    },
    {
      "inputs": [
        {
          "internalType": "address",
          "name": "testator",
          "type": "address"
        }
      ],
      "name": "getWillCount",
      "outputs": [
        {
          "internalType": "uint256",
          "name": "",
          "type": "uint256"
        }
      ],
      "stateMutability": "view",
      "type": "function"
    },
    {
      "inputs": [],
      "name": "owner",
      "outputs": [
        {
          "internalType": "address",
          "name": "",
          "type": "address"
        }
      ],
      "stateMutability": "view",
      "type": "function"
    },
    {
      "inputs": [],
      "name": "ping",
      "outputs": [],
      "stateMutability": "nonpayable",
      "type": "function"
    },
    {
      "inputs": [
        {
          "internalType": "uint256",
          "name": "",
          "type": "uint256"
        }
      ],
      "name": "testators",
      "outputs": [
        {
          "internalType": "address",
          "name": "",
          "type": "address"
        }
      ],
      "stateMutability": "view",
      "type": "function"
    },
    {
      "stateMutability": "payable",
      "type": "receive"
    }
  ],
  "bytecode": "0x6080604052348015600f57600080fd5b50336000806101000a81548173ffffffffffffffffffffffffffffffffffffffff021916908373ffffffffffffffffffffffffffffffffffffffff160217905550612d778061005f6000396000f3fe6080604052600436106100c65760003560e01c806378c2fedd1161007f5780638da5cb5b116100595780638da5cb5b14610285578063c4f76d3c146102b0578063d558204e146102e0578063e854d135146102f7576100cd565b806378c2fedd146101e05780637a7d5e4b1461021d57806383b4fd2a1461025a576100cd565b8063213cedef146100d257806325d7bfe6146100fb578063522c6b33146101385780635c36b1861461016357806368acbfa51461017a57806369d112be146101b7576100cd565b366100cd57005b600080fd5b3480156100de57600080fd5b506100f960048036038101906100f49190611daa565b610320565b005b34801561010757600080fd5b50610122600480360381019061011d9190611e35565b6103c2565b60405161012f919061210b565b60405180910390f35b34801561014457600080fd5b5061014d610626565b60405161015a919061219c565b60405180910390f35b34801561016f57600080fd5b50610178610703565b005b34801561018657600080fd5b506101a1600480360381019061019c9190611daa565b610977565b6040516101ae91906121cd565b60405180910390f35b3480156101c357600080fd5b506101de60048036038101906101d99190611e35565b6109b6565b005b3480156101ec57600080fd5b50610207600480360381019061020291906121e8565b610a59565b6040516102149190612224565b60405180910390f35b34801561022957600080fd5b50610244600480360381019061023f91906121e8565b610aa5565b6040516102519190612224565b60405180910390f35b34801561026657600080fd5b5061026f610abd565b60405161027c91906122ae565b60405180910390f35b34801561029157600080fd5b5061029a610b4b565b6040516102a791906121cd565b60405180910390f35b6102ca60048036038101906102c591906124ec565b610b6f565b6040516102d79190612224565b60405180910390f35b3480156102ec57600080fd5b506102f561122d565b005b34801561030357600080fd5b5061031e600480360381019061031991906121e8565b6113ee565b005b33816000811180156103745750600160008373ffffffffffffffffffffffffffffffffffffffff1673ffffffffffffffffffffffffffffffffffffffff168152602001908152602001600020805490508111155b6103b3576040517f08c379a00000000000000000000000000000000000000000000000000000000081526004016103aa906125d4565b60405180910390fd5b6103bd3384611483565b505050565b6103ca611c1d565b828260008111801561041e5750600160008373ffffffffffffffffffffffffffffffffffffffff1673ffffffffffffffffffffffffffffffffffffffff168152602001908152602001600020805490508111155b61045d576040517f08c379a0000000000000000000000000000000000000000000000000000000008152600401610454906125d4565b60405180910390fd5b600160008673ffffffffffffffffffffffffffffffffffffffff1673ffffffffffffffffffffffffffffffffffffffff1681526020019081526020016000206001856104a99190612623565b815481106104ba576104b9612657565b5b90600052602060002090600702016040518060e00160405290816000820180548060200260200160405190810160405280929190818152602001828054801561055857602002820191906000526020600020905b8160009054906101000a900473ffffffffffffffffffffffffffffffffffffffff1673ffffffffffffffffffffffffffffffffffffffff168152602001906001019080831161050e575b50505050508152602001600182018054806020026020016040519081016040528092919081815260200182805480156105b057602002820191906000526020600020905b81548152602001906001019080831161059c575b50505050508152602001600282015481526020016003820154815260200160048201548152602001600582015481526020016006820160009054906101000a900460ff16600381111561060657610605611ff1565b5b600381111561061857610617611ff1565b5b815250509250505092915050565b60606000600160003373ffffffffffffffffffffffffffffffffffffffff1673ffffffffffffffffffffffffffffffffffffffff1681526020019081526020016000208054905090508067ffffffffffffffff811115610689576106886122e6565b5b6040519080825280602002602001820160405280156106b75781602001602082028036833780820191505090505b50915060005b818110156106fe576001816106d29190612686565b8382815181106106e5576106e4612657565b5b60200260200101818152505080806001019150506106bd565b505090565b6000600260003373ffffffffffffffffffffffffffffffffffffffff1673ffffffffffffffffffffffffffffffffffffffff1681526020019081526020016000205490506000810361078a576040517f08c379a000000000000000000000000000000000000000000000000000000000815260040161078190612706565b60405180910390fd5b6000600160003373ffffffffffffffffffffffffffffffffffffffff1673ffffffffffffffffffffffffffffffffffffffff1681526020019081526020016000206001836107d89190612623565b815481106107e9576107e8612657565b5b906000526020600020906007020190506001600381111561080d5761080c611ff1565b5b8160060160009054906101000a900460ff16600381111561083157610830611ff1565b5b14610871576040517f08c379a000000000000000000000000000000000000000000000000000000000815260040161086890612706565b60405180910390fd5b6000600260003373ffffffffffffffffffffffffffffffffffffffff1673ffffffffffffffffffffffffffffffffffffffff1681526020019081526020016000205490506000600160003373ffffffffffffffffffffffffffffffffffffffff1673ffffffffffffffffffffffffffffffffffffffff1681526020019081526020016000206001836109039190612623565b8154811061091457610913612657565b5b90600052602060002090600702019050428160030181905550813373ffffffffffffffffffffffffffffffffffffffff167ffd8d0c1dc3ab254ec49463a1192bb2423b3b851adedec1aa94dcd362dc063c9d60405160405180910390a350505050565b6003818154811061098757600080fd5b906000526020600020016000915054906101000a900473ffffffffffffffffffffffffffffffffffffffff1681565b8181600081118015610a0a5750600160008373ffffffffffffffffffffffffffffffffffffffff1673ffffffffffffffffffffffffffffffffffffffff168152602001908152602001600020805490508111155b610a49576040517f08c379a0000000000000000000000000000000000000000000000000000000008152600401610a40906125d4565b60405180910390fd5b610a5384846117cc565b50505050565b6000600160008373ffffffffffffffffffffffffffffffffffffffff1673ffffffffffffffffffffffffffffffffffffffff168152602001908152602001600020805490509050919050565b60026020528060005260406000206000915090505481565b60606003805480602002602001604051908101604052809291908181526020018280548015610b4157602002820191906000526020600020905b8160009054906101000a900473ffffffffffffffffffffffffffffffffffffffff1673ffffffffffffffffffffffffffffffffffffffff1681526020019060010190808311610af7575b5050505050905090565b60008054906101000a900473ffffffffffffffffffffffffffffffffffffffff1681565b600080600260003373ffffffffffffffffffffffffffffffffffffffff1673ffffffffffffffffffffffffffffffffffffffff16815260200190815260200160002054905060008114610ca5576000600160003373ffffffffffffffffffffffffffffffffffffffff1673ffffffffffffffffffffffffffffffffffffffff168152602001908152602001600020600183610c0a9190612623565b81548110610c1b57610c1a612657565b5b9060005260206000209060070201905060016003811115610c3f57610c3e611ff1565b5b8160060160009054906101000a900460ff166003811115610c6357610c62611ff1565b5b03610ca3576040517f08c379a0000000000000000000000000000000000000000000000000000000008152600401610c9a90612772565b60405180910390fd5b505b662386f26fc10000341015610cef576040517f08c379a0000000000000000000000000000000000000000000000000000000008152600401610ce690612804565b60405180910390fd5b8351855114610d33576040517f08c379a0000000000000000000000000000000000000000000000000000000008152600401610d2a90612896565b60405180910390fd5b60008551118015610d465750600a855111155b610d85576040517f08c379a0000000000000000000000000000000000000000000000000000000008152600401610d7c90612902565b60405180910390fd5b6000805b8651811015610ead57600073ffffffffffffffffffffffffffffffffffffffff16878281518110610dbd57610dbc612657565b5b602002602001015173ffffffffffffffffffffffffffffffffffffffff1603610e1b576040517f08c379a0000000000000000000000000000000000000000000000000000000008152600401610e1290612994565b60405180910390fd5b6000868281518110610e3057610e2f612657565b5b602002602001015111610e78576040517f08c379a0000000000000000000000000000000000000000000000000000000008152600401610e6f90612a00565b60405180910390fd5b858181518110610e8b57610e8a612657565b5b602002602001015182610e9e9190612686565b91508080600101915050610d89565b5034811115610ef1576040517f08c379a0000000000000000000000000000000000000000000000000000000008152600401610ee890612a6c565b60405180910390fd5b60006040518060e0016040528088815260200187815260200142815260200142815260200186815260200134815260200160016003811115610f3657610f35611ff1565b5b8152509050600160003373ffffffffffffffffffffffffffffffffffffffff1673ffffffffffffffffffffffffffffffffffffffff1681526020019081526020016000208190806001815401808255809150506001900390600052602060002090600702016000909190919091506000820151816000019080519060200190610fc0929190611c6c565b506020820151816001019080519060200190610fdd929190611cf6565b5060408201518160020155606082015181600301556080820151816004015560a0820151816005015560c08201518160060160006101000a81548160ff0219169083600381111561103157611030611ff1565b5b02179055505050600160003373ffffffffffffffffffffffffffffffffffffffff1673ffffffffffffffffffffffffffffffffffffffff16815260200190815260200160002080549050935083600260003373ffffffffffffffffffffffffffffffffffffffff1673ffffffffffffffffffffffffffffffffffffffff16815260200190815260200160002081905550600460003373ffffffffffffffffffffffffffffffffffffffff1673ffffffffffffffffffffffffffffffffffffffff16815260200190815260200160002060009054906101000a900460ff166111ce576001600460003373ffffffffffffffffffffffffffffffffffffffff1673ffffffffffffffffffffffffffffffffffffffff16815260200190815260200160002060006101000a81548160ff0219169083151502179055506003339080600181540180825580915050600190039060005260206000200160009091909190916101000a81548173ffffffffffffffffffffffffffffffffffffffff021916908373ffffffffffffffffffffffffffffffffffffffff1602179055505b833373ffffffffffffffffffffffffffffffffffffffff167febbc56e2e2b8108fc57d693c8644c4cc07973b9204c94810a0492cb26b34b6ec8989348a60405161121b9493929190612a8c565b60405180910390a35050509392505050565b6000600260003373ffffffffffffffffffffffffffffffffffffffff1673ffffffffffffffffffffffffffffffffffffffff168152602001908152602001600020549050600081036112b4576040517f08c379a00000000000000000000000000000000000000000000000000000000081526004016112ab90612706565b60405180910390fd5b6000600160003373ffffffffffffffffffffffffffffffffffffffff1673ffffffffffffffffffffffffffffffffffffffff1681526020019081526020016000206001836113029190612623565b8154811061131357611312612657565b5b906000526020600020906007020190506001600381111561133757611336611ff1565b5b8160060160009054906101000a900460ff16600381111561135b5761135a611ff1565b5b1461139b576040517f08c379a000000000000000000000000000000000000000000000000000000000815260040161139290612706565b60405180910390fd5b6000600260003373ffffffffffffffffffffffffffffffffffffffff1673ffffffffffffffffffffffffffffffffffffffff1681526020019081526020016000205490506113e93382611483565b505050565b6000600260008373ffffffffffffffffffffffffffffffffffffffff1673ffffffffffffffffffffffffffffffffffffffff16815260200190815260200160002054905060008103611475576040517f08c379a000000000000000000000000000000000000000000000000000000000815260040161146c90612706565b60405180910390fd5b61147f82826117cc565b5050565b81816000811180156114d75750600160008373ffffffffffffffffffffffffffffffffffffffff1673ffffffffffffffffffffffffffffffffffffffff168152602001908152602001600020805490508111155b611516576040517f08c379a000000000000000000000000000000000000000000000000000000000815260040161150d906125d4565b60405180910390fd5b6000600160008673ffffffffffffffffffffffffffffffffffffffff1673ffffffffffffffffffffffffffffffffffffffff1681526020019081526020016000206001856115649190612623565b8154811061157557611574612657565b5b906000526020600020906007020190506001600381111561159957611598611ff1565b5b8160060160009054906101000a900460ff1660038111156115bd576115bc611ff1565b5b146115fd576040517f08c379a00000000000000000000000000000000000000000000000000000000081526004016115f490612b2b565b60405180910390fd5b60008160050154905060028260060160006101000a81548160ff0219169083600381111561162e5761162d611ff1565b5b02179055506000826005018190555084600260008873ffffffffffffffffffffffffffffffffffffffff1673ffffffffffffffffffffffffffffffffffffffff16815260200190815260200160002054036116c9576000600260008873ffffffffffffffffffffffffffffffffffffffff1673ffffffffffffffffffffffffffffffffffffffff168152602001908152602001600020819055505b60008111156117805760008673ffffffffffffffffffffffffffffffffffffffff16826040516116f890612b7c565b60006040518083038185875af1925050503d8060008114611735576040519150601f19603f3d011682016040523d82523d6000602084013e61173a565b606091505b505090508061177e576040517f08c379a000000000000000000000000000000000000000000000000000000000815260040161177590612bdd565b60405180910390fd5b505b848673ffffffffffffffffffffffffffffffffffffffff167fd16154c519cc3249e2d6eab8c263b188784ac1293b9183457328ce05ac4fe16960405160405180910390a3505050505050565b81816000811180156118205750600160008373ffffffffffffffffffffffffffffffffffffffff1673ffffffffffffffffffffffffffffffffffffffff168152602001908152602001600020805490508111155b61185f576040517f08c379a0000000000000000000000000000000000000000000000000000000008152600401611856906125d4565b60405180910390fd5b6000600160008673ffffffffffffffffffffffffffffffffffffffff1673ffffffffffffffffffffffffffffffffffffffff1681526020019081526020016000206001856118ad9190612623565b815481106118be576118bd612657565b5b90600052602060002090600702019050600160038111156118e2576118e1611ff1565b5b8160060160009054906101000a900460ff16600381111561190657611905611ff1565b5b14611946576040517f08c379a000000000000000000000000000000000000000000000000000000000815260040161193d90612b2b565b60405180910390fd5b600081600501540361198d576040517f08c379a000000000000000000000000000000000000000000000000000000000815260040161198490612c49565b60405180910390fd5b806004015481600301546119a19190612686565b42116119e2576040517f08c379a00000000000000000000000000000000000000000000000000000000081526004016119d990612cb5565b60405180910390fd5b60005b8160000180549050811015611b0e576000826000018281548110611a0c57611a0b612657565b5b9060005260206000200160009054906101000a900473ffffffffffffffffffffffffffffffffffffffff1673ffffffffffffffffffffffffffffffffffffffff16836001018381548110611a6357611a62612657565b5b9060005260206000200154604051611a7a90612b7c565b60006040518083038185875af1925050503d8060008114611ab7576040519150601f19603f3d011682016040523d82523d6000602084013e611abc565b606091505b5050905080611b00576040517f08c379a0000000000000000000000000000000000000000000000000000000008152600401611af790612d21565b60405180910390fd5b5080806001019150506119e5565b5060038160060160006101000a81548160ff02191690836003811115611b3757611b36611ff1565b5b02179055506000816005018190555083600260008773ffffffffffffffffffffffffffffffffffffffff1673ffffffffffffffffffffffffffffffffffffffff1681526020019081526020016000205403611bd2576000600260008773ffffffffffffffffffffffffffffffffffffffff1673ffffffffffffffffffffffffffffffffffffffff168152602001908152602001600020819055505b838573ffffffffffffffffffffffffffffffffffffffff167fac8ae454ab5edd07d536a5c6584f39f829039f54889168e45278e74b7d062a3f60405160405180910390a35050505050565b6040518060e0016040528060608152602001606081526020016000815260200160008152602001600081526020016000815260200160006003811115611c6657611c65611ff1565b5b81525090565b828054828255906000526020600020908101928215611ce5579160200282015b82811115611ce45782518260006101000a81548173ffffffffffffffffffffffffffffffffffffffff021916908373ffffffffffffffffffffffffffffffffffffffff16021790555091602001919060010190611c8c565b5b509050611cf29190611d43565b5090565b828054828255906000526020600020908101928215611d32579160200282015b82811115611d31578251825591602001919060010190611d16565b5b509050611d3f9190611d43565b5090565b5b80821115611d5c576000816000905550600101611d44565b5090565b6000604051905090565b600080fd5b600080fd5b6000819050919050565b611d8781611d74565b8114611d9257600080fd5b50565b600081359050611da481611d7e565b92915050565b600060208284031215611dc057611dbf611d6a565b5b6000611dce84828501611d95565b91505092915050565b600073ffffffffffffffffffffffffffffffffffffffff82169050919050565b6000611e0282611dd7565b9050919050565b611e1281611df7565b8114611e1d57600080fd5b50565b600081359050611e2f81611e09565b92915050565b60008060408385031215611e4c57611e4b611d6a565b5b6000611e5a85828601611e20565b9250506020611e6b85828601611d95565b9150509250929050565b600081519050919050565b600082825260208201905092915050565b6000819050602082019050919050565b611eaa81611df7565b82525050565b6000611ebc8383611ea1565b60208301905092915050565b6000602082019050919050565b6000611ee082611e75565b611eea8185611e80565b9350611ef583611e91565b8060005b83811015611f26578151611f0d8882611eb0565b9750611f1883611ec8565b925050600181019050611ef9565b5085935050505092915050565b600081519050919050565b600082825260208201905092915050565b6000819050602082019050919050565b611f6881611d74565b82525050565b6000611f7a8383611f5f565b60208301905092915050565b6000602082019050919050565b6000611f9e82611f33565b611fa88185611f3e565b9350611fb383611f4f565b8060005b83811015611fe4578151611fcb8882611f6e565b9750611fd683611f86565b925050600181019050611fb7565b5085935050505092915050565b7f4e487b7100000000000000000000000000000000000000000000000000000000600052602160045260246000fd5b6004811061203157612030611ff1565b5b50565b600081905061204282612020565b919050565b600061205282612034565b9050919050565b61206281612047565b82525050565b600060e08301600083015184820360008601526120858282611ed5565b9150506020830151848203602086015261209f8282611f93565b91505060408301516120b46040860182611f5f565b5060608301516120c76060860182611f5f565b5060808301516120da6080860182611f5f565b5060a08301516120ed60a0860182611f5f565b5060c083015161210060c0860182612059565b508091505092915050565b600060208201905081810360008301526121258184612068565b905092915050565b600082825260208201905092915050565b600061214982611f33565b612153818561212d565b935061215e83611f4f565b8060005b8381101561218f5781516121768882611f6e565b975061218183611f86565b925050600181019050612162565b5085935050505092915050565b600060208201905081810360008301526121b6818461213e565b905092915050565b6121c781611df7565b82525050565b60006020820190506121e260008301846121be565b92915050565b6000602082840312156121fe576121fd611d6a565b5b600061220c84828501611e20565b91505092915050565b61221e81611d74565b82525050565b60006020820190506122396000830184612215565b92915050565b600082825260208201905092915050565b600061225b82611e75565b612265818561223f565b935061227083611e91565b8060005b838110156122a15781516122888882611eb0565b975061229383611ec8565b925050600181019050612274565b5085935050505092915050565b600060208201905081810360008301526122c88184612250565b905092915050565b600080fd5b6000601f19601f8301169050919050565b7f4e487b7100000000000000000000000000000000000000000000000000000000600052604160045260246000fd5b61231e826122d5565b810181811067ffffffffffffffff8211171561233d5761233c6122e6565b5b80604052505050565b6000612350611d60565b905061235c8282612315565b919050565b600067ffffffffffffffff82111561237c5761237b6122e6565b5b602082029050602081019050919050565b600080fd5b60006123a56123a084612361565b612346565b905080838252602082019050602084028301858111156123c8576123c761238d565b5b835b818110156123f157806123dd8882611e20565b8452602084019350506020810190506123ca565b5050509392505050565b600082601f8301126124105761240f6122d0565b5b8135612420848260208601612392565b91505092915050565b600067ffffffffffffffff821115612444576124436122e6565b5b602082029050602081019050919050565b600061246861246384612429565b612346565b9050808382526020820190506020840283018581111561248b5761248a61238d565b5b835b818110156124b457806124a08882611d95565b84526020840193505060208101905061248d565b5050509392505050565b600082601f8301126124d3576124d26122d0565b5b81356124e3848260208601612455565b91505092915050565b60008060006060848603121561250557612504611d6a565b5b600084013567ffffffffffffffff81111561252357612522611d6f565b5b61252f868287016123fb565b935050602084013567ffffffffffffffff8111156125505761254f611d6f565b5b61255c868287016124be565b925050604061256d86828701611d95565b9150509250925092565b600082825260208201905092915050565b7f496e76616c69642077696c6c4964000000000000000000000000000000000000600082015250565b60006125be600e83612577565b91506125c982612588565b602082019050919050565b600060208201905081810360008301526125ed816125b1565b9050919050565b7f4e487b7100000000000000000000000000000000000000000000000000000000600052601160045260246000fd5b600061262e82611d74565b915061263983611d74565b9250828203905081811115612651576126506125f4565b5b92915050565b7f4e487b7100000000000000000000000000000000000000000000000000000000600052603260045260246000fd5b600061269182611d74565b915061269c83611d74565b92508282019050808211156126b4576126b36125f4565b5b92915050565b7f4e6f206163746976652077696c6c000000000000000000000000000000000000600082015250565b60006126f0600e83612577565b91506126fb826126ba565b602082019050919050565b6000602082019050818103600083015261271f816126e3565b9050919050565b7f57696c6c20616c72656164792065786973747300000000000000000000000000600082015250565b600061275c601383612577565b915061276782612726565b602082019050919050565b6000602082019050818103600083015261278b8161274f565b9050919050565b7f4d696e696d756d206f6620302e3031206574686572207265717569726564207460008201527f6f206372656174652077696c6c00000000000000000000000000000000000000602082015250565b60006127ee602d83612577565b91506127f982612792565b604082019050919050565b6000602082019050818103600083015261281d816127e1565b9050919050565b7f42656e6566696369617269657320616e6420616d6f756e74206d75737420626560008201527f206f66207468652073616d65206c656e67746800000000000000000000000000602082015250565b6000612880603383612577565b915061288b82612824565b604082019050919050565b600060208201905081810360008301526128af81612873565b9050919050565b7f3120746f2031302062656e6566696369617269657320616c6c6f776564000000600082015250565b60006128ec601d83612577565b91506128f7826128b6565b602082019050919050565b6000602082019050818103600083015261291b816128df565b9050919050565b7f42656e65666963696172792061646472657373206d757374206265206120766160008201527f6c69642061646472657373000000000000000000000000000000000000000000602082015250565b600061297e602b83612577565b915061298982612922565b604082019050919050565b600060208201905081810360008301526129ad81612971565b9050919050565b7f416d6f756e74206d7573742062652067726561746572207468616e2030000000600082015250565b60006129ea601d83612577565b91506129f5826129b4565b602082019050919050565b60006020820190508181036000830152612a19816129dd565b9050919050565b7f496e73756666696369656e742065746865722073656e74000000000000000000600082015250565b6000612a56601783612577565b9150612a6182612a20565b602082019050919050565b60006020820190508181036000830152612a8581612a49565b9050919050565b60006080820190508181036000830152612aa68187612250565b90508181036020830152612aba818661213e565b9050612ac96040830185612215565b612ad66060830184612215565b95945050505050565b7f57696c6c206e6f74206163746976650000000000000000000000000000000000600082015250565b6000612b15600f83612577565b9150612b2082612adf565b602082019050919050565b60006020820190508181036000830152612b4481612b08565b9050919050565b600081905092915050565b50565b6000612b66600083612b4b565b9150612b7182612b56565b600082019050919050565b6000612b8782612b59565b9150819050919050565b7f526566756e64206661696c656400000000000000000000000000000000000000600082015250565b6000612bc7600d83612577565b9150612bd282612b91565b602082019050919050565b60006020820190508181036000830152612bf681612bba565b9050919050565b7f57696c6c20646f65736e27742065786973740000000000000000000000000000600082015250565b6000612c33601283612577565b9150612c3e82612bfd565b602082019050919050565b60006020820190508181036000830152612c6281612c26565b9050919050565b7f5465737461746f72207374696c6c20616c697665000000000000000000000000600082015250565b6000612c9f601483612577565b9150612caa82612c69565b602082019050919050565b60006020820190508181036000830152612cce81612c92565b9050919050565b7f5472616e7366657220746f2062656e6566696369617279206661696c65640000600082015250565b6000612d0b601e83612577565b9150612d1682612cd5565b602082019050919050565b60006020820190508181036000830152612d3a81612cfe565b905091905056fea26469706673582212201d0057847119564a7fe7b5245a2723ce28a109e6d7fd6be37d51242ecc9202b664736f6c634300081c0033",
  "linkReferences": {},
  "deployedLinkReferences": {}
}